:020000040000FA
:0400000000000528CF
:08000800CE2808204828062834
:1000100083160313860183160313870183160313C4
:1000200089010614831203137E3092008B170B177D
:100030000B16831603138C1483160313C33092001C
:10004000831203130D308600A401A201A301AD01A8
:100050000F30A500A8000830A600A9000430A700B2
:10006000AA000630AB008312031308303D2087003E
:1000700000303D208900AC01080082073F3406347F
:100080005B344F3466342D347D3447347F346F34E1
:10009000861C5728061D4D286528A60326083D20E6
:1000A000870000303D2089002608031D9628270878
:1000B0003D20870000303D20890086100615270866
:1000C000013E013CA703031C9628AC082C1873289A
:1000D0002B08013E013CAB03031873282B083D207D
:1000E00001303D207B280130AC0025083D208700F1
:1000F00000303D20890086152508013E013CA503FE
:10010000031C96280F30A5000830A6000430A70075
:100110000630AB00AC0186140611831203130830BD
:100120003D20870000303D2089009628861DA628A6
:10013000061EA0289B288616A8032808031DC92888
:1001400086150612A9032908031DC928861106165B
:10015000AA032A08031DC9280F30A8000830A900E7
:100160000430AA009B28C928A40A2408143C031DB3
:10017000C928A4012D08031DC12823080A3C031D1A
:100180004828A30186140615AD0A2D30063C031934
:10019000AD018C10D328A30A8B10D328A000030E26
:1001A00083120313A1008C18B4288B18CB28831258
:0C01B0000313210E8300A00E200E090096
:00000001FF
